:020000040800F2
:10000000A8DD01208D0400085D5D0008B9560008D8
:10001000595D00083D1D0008F98F00080000000030
:100020000000000000000000000000005D03000868
:10003000E72100080000000015040008790400080A
:10004000A7040008A7040008A7040008A7040008E4
:10005000A7040008A7040008A7040008A7040008D4
:10006000A7040008A7040008A7040008A7040008C4
:10007000A7040008A7040008A7040008A7040008B4
:10008000A7040008A7040008A7040008A7040008A4
:10009000A7040008A7040008A7040008A704000894
:1000A000A7040008A7040008A7040008A704000884
:1000B000A7040008A7040008A7040008A704000874
:1000C000A7040008A7040008A70400089D6A000808
:1000D000AD6A000801790008A7040008A704000819
:1000E000A70400089D660008A7040008A7040008EC
:1000F000A7040008A7040008A7040008A704000834
:10010000A704000811680008A7040008A704000855
:10011000A7040008A7040008A7040008A704000813
:10012000A70400088520000895200008A5200008E5
:10013000A7040008E9210008A7040008A704000894
:10014000A7040008A7040008A7040008615D0008D0
:10015000A7040008B9200008CD2000081179000884
:10016000A7040008A7040008815D0008715D00086D
:10017000A7040008915D0008A70400080000000023
:10018000A7040008A704000800F002F800F052F8E5
:100190000AA090E8000C82448344AAF10107DA45E2
:1001A00001D100F047F8AFF2090EBAE80F0013F0E2
:1001B000010F18BFFB1A43F0010318479C2F0100E1
:1001C000BC2F0100103A24BF78C878C1FAD8520772
:1001D00024BF30C830C144BF04680C6070470000C1
:1001E0000023002400250026103A28BF78C1FBD840
:1001F000520728BF30C148BF0B607047642900F028
:100200007582002070471FB512F0F8FA9DE80300D0
:1002100000F078FE01F088FB04000020002112F0BD
:10022000D7FA401C606001F067FA1FBD10B501F0FD
:10023000DBFA10BD01F053FB1146FFF7E4FF0FB4EA
:1002400000F00CF80FBC0BF0E7FC00F0CDFC03B4A1
:10025000FFF7ECFF03BC01F03BFB000004B00FF024
:10026000B1FC044800210FF099FD0FF0BDFC00F037
:10027000BBFC0000EC2801080246D2E84F0F411CED
:10028000C2E8431F03B1F8E77047024652E8000F87
:10029000411C42E8001303B1F8E77047024652E8F8
:1002A000000F42E8001303B1F9E77047024652E835
:1002B000000F830103D3BFF32F8F0020704700F09E
:1002C0000040084342E8000303B1F0E770470246EC
:1002D00052E8000F800103D2BFF32F8F0020704738
:1002E00042E8001303B1F3E701207047004870476C
:1002F0000000090780F309887047EFF30980704711
:10030000684680F3098804480078C00714BF0220BB
:10031000032080F314887047AC280108DFF818C068
:10032000EFF305831B0618BF6047EFF31483DB0769
:1003300008BF604700DF7047D5050108DFF818C027
:10034000EFF305831B0618BF6047EFF31483DB0749
:1003500008BF604700DF70476D080108EFF30980B0
:10036000816911F8021CE1BB90E80F1010B5E0475D
:10037000BDE81040EFF3098C8CE80700214B93E8AF
:100380000600914208BF704741B91EF0100F16D108
:100390001D49086820F00100086010E01EF0100FF1
:1003A00006BF2CED108A0120002081F825002CE9E1
:1003B000F00FC1F828C00CB410F086FE0CBC1A6017
:1003C000D2F828C0BCE8F00F92F8250000280EBF34
:1003D0006FF0020E6FF0120EBCEC108A8CF30988DD
:1003E000704710B5094A1268914209D8084C54F870
:1003F000214090E80F10A047EFF3098C8CE80F0024
:1004000010BD00009800002034EF00E0941C0008AC
:10041000941C000810B510F0B1FCBDE81040154B5D
:1004200093E80600914208BF7047EFF3098C1EF075
:10043000100F06BF2CED108A0120002081F8250046
:100440002CE9F00FC1F828C00CB410F03DFE0CBC34
:100450001A60D2F828C0BCE8F00F92F825000028F6
:100460000EBF6FF0020E6FF0120EBCEC108A8CF310
:10047000098870479800002010B510F0EDFECCE719
:1004800010B50FF033FD10F0E7FEC6E709488047CE
:1004900009480047FEE7FEE7FEE7FEE7FEE7FEE766
:1004A000FEE7FEE7FEE7FEE704480549054A064B7E
:1004B000704700009973000889010008A81D0120F9
:1004C000A8DD0120A85D0120A85D0120004870473B
:1004D0009C1701200B3020F0070070472DE9F041F8
:1004E00017460E460446FFF7F5FFA042054633D9EE
:1004F000002F1CBF06F10C0008F030FF3046746876
:10050000F4B12168A94217D305F1080291423CBF1A
:100510006168416007D3626861194A602268521BB2
:100520000A6041602560002F1CBF06F10C0008F036
:100530003BFF201DBDE8F08120466468002CE0D11F
:100540002946304600F0CAFC0028D7D1002F1CBF36
:1005500006F10C0008F028FF0020BDE8F08110B57E
:10056000044600F0B2FC01682046BDE810400122BC
:10057000B4E770B516460D46041F002808BF70BDCD
:10058000002E1CBF05F10C0008F0E8FE2B46586851
:10059000002818BFA04238BF0346F8D31968CA180C
:1005A000A24218BF5C6003D122681C461144196046
:1005B00021680A19824218BF606004D142686260F3
:1005C000006808442060002E1CBF05F10C0008F0F4
:1005D000EBFE70BD10B5044600F077FC01682046C4
:1005E000BDE810400122C4E753EA020C00F0698024
:1005F0002DE9F04B4FF00006002B1FBFB3FA83F537
:1006000003FA05F424FA05F65E4012BF1643B2FA67
:1006100082F502FA05F4C5F120051EBF22FA05FC99
:1006200044EA0C04203556EA044C4FEA144418BF3F
:10063000641C4FF000084FF00009904271EB030C6E
:1006400039D3002919BFB1FA81F701FA07F6B0FAD8
:1006500080F700FA07F6C7F120071EBF20FA07FC53
:1006600046EA0C062037B6FBF4FCA7EB0507103F63
:1006700007F01F0BCBF120060CFA0BFB2CFA06F649
:1006800044BFB3460026202FA4BF5E464FF0000BA8
:100690005BEA060C08BF4FF0010B19EB0B09ABFB33
:1006A000027C48EB0608C01B06FB02CC0BFB03CC0C
:1006B00071EB0C01C1E70B46024641464846BDE8D6
:1006C000F08B13B54FF000004FF00001AFF3008046
:1006D000BDE81C4070470FB4014610B504AA03984A
:1006E00001F07CFA10BC5DF814FB00002DE9F0412C
:1006F0000646002410687529314616A510D0AFF3C0
:100700000080002802DA404213A507E031688A071A
:1007100001D512A502E0490704D511A5012401E085
:10072000AFF3008000210A2206F1240709E0B0FBA4
:10073000F2FCB0FBF2F302FB1C0030307854184698
:10074000491C0028F3D123462A463046BDE8F04133
:1007500000F01DBC000000002D0000002B00000078
:10076000200000002DE9F05F894604464FF0000AA2
:10077000DFF824B1FB44C0F820A02046E168884798
:1007800000287DD0252806D0D4E901219047206A91
:10079000401C2062F1E700255F462046E16888475B
:1007A0002028064607DB312E05D2B81910F8200C98
:1007B00008B10543F1E7A80701D525F00405C4F801
:1007C0001CA00027C4F818A02A2E09D0304608F033
:1007D000BEFD38B304EB8708303EC8F8186019E056
:1007E00059F8041B204604EB87029161E1688847B1
:1007F000012F064618D1E069002820DA25F02005EF
:100800001DE0D8F8180000EB800006EB40003038FF
:10081000C8F818002046E1688847064608F097FDAA
:100820000028EED1012F0AD02E2E08D12046E168F3
:1008300088477F1C0646022F45F02005C4DBA069CF
:10084000002803DA404245F00105A061E80701D025
:1008500025F01005A6B1A6F14100192802D82036CE
:1008600045F400654A463146204625604D46FFF76F
:10087000C5FC60B1012807D0ED1D25F0070000E0A0
:1008800007E000F1080978E705F1040975E730464B
:100890007AE7206ABDE8F09F6C2901000FB400B52B
:1008A0008DB010A9099000910B904FF0FF300A9085
:1008B00000200C90064878440690064878446A4622
:1008C00007900F9909A800F0E7FB0DB05DF814FB45
:1008D000FF070000170800002DE9FF5F1D464FF0DD
:1008E000FF3B91464FF000085F46D5E90146A969F4
:1008F00001987F1C8847296A824688470028F6D1DC
:10090000BAF1FF3F0CD0002E24F4C06419DD60065C
:1009100014D5BAF12B0F09D0BAF12D0F0ED103E087
:10092000584604B0BDE8F09F44F48064A96901987A
:100930007F1C8847761E8246002E02DDBAF1300FFA
:1009400003D0B9F1000F26D032E0A969761E0198D4
:100950007F1C44F400748847002E824605DDBAF1FE
:10096000780F06D0BAF1580F03D0B9F1000F10D0AC
:100970001EE0B9F1000F02D0B9F1100F18D1A9692A
:10098000761E01987F1C24F400748847824610204C
:1009900002E0082000E00A20814609E0A96908FB7E
:1009A0000908761E01987F1C44F40074884782462B
:1009B000002E05DD4946504600F05AFB0028EDDACE
:1009C000E96901988847A00502D46FF00100A8E703
:1009D000E00725D1600613D5600502D5C8F10000F7
:1009E00000E0404629680A1D2A600968220501D5F1
:1009F000087015E0220701D5088011E008600FE0BB
:100A00002868011D29600068210502D580F8008052
:100A100006E0210702D5A0F8008001E0C0F80080C0
:100A200038467EE72DE9F04704464FF000094FF0C5
:100A3000FF37C568D4E90486A80707D0204600F030
:100A40000BFC304608F0BEFC002802DA3846BDE850
:100A5000F087280502D54046FFF7BCFD4C21204613
:100A600000F0C8F9206D20F0010020654846EEE74F
:100A700070B505460A4E304608F070FC05F14C048E
:100A8000204608F06BFC2846FFF7CCFF05462046C1
:100A900008F08AFC304608F087FC284670BD00004C
:100AA000EC0000202DE9F04716468846814602F109
:100AB0004C07384608F052FC3046FFF7B3FF18F8F1
:100AC000010B61280AD0722802D077283FD102E0BA
:100AD0000125002405E00225042402E0082448F250
:100AE000020518F8010B2B2806D0622809D018F847
:100AF000010C74280AD00BE045F0030544F0020411
:100B0000EFE745F0040544F00104EAE744F010047F
:100B10004846214608F092FC411C18D00021316162
:100B200071604FF40071F560F1617061200704D5C8
:100B300030460222002100F0DFFA306D40F0010063
:100B40003065384608F030FC3046BDE8F0870026B6
:100B5000F7E72DE9F04115460E460746204C2046A2
:100B600008F0FCFB2A4631463846FFF79BFF054656
:100B7000204608F019FC2846BDE8F0812DE9F04137
:100B80000E468046164D284608F0E8FB154C206DB1
:100B9000C10704D0410804D020F00104F7E7224641
:100BA00012E05420FFF7DBFC070017D0206D47F060
:100BB0000101084354212065384600F01BF907F174
:100BC0004C0008F0DBFB3A4631464046FFF76AFF2F
:100BD0000446284608F0E8FB2046CDE70024F8E765
:100BE000EC000020FC17012010B50446AFF3008094
:100BF0002046BDE81040FFF72ABB40EA010310B5CC
:100C00009B070FD1042A0DD310C808C9121F9C429C
:100C1000F8D020BA19BA884201D9012010BD4FF08E
:100C2000FF3010BD1AB1D30703D0521C07E00020DB
:100C300010BD10F8013B11F8014B1B1B07D110F838
:100C4000013B11F8014B1B1B01D1921EF1D118463B
:100C500010BD2DE9F041054690460E4600200446A1
:100C600000E0641C44450BD2285D00F083F9074680
:100C7000305D00F07FF9381A02D1295D0029F0D1EA
:100C8000BDE8F08110B5431C02E010F8011B71B102
:100C90008107FAD14FF0013202C88C1A8C4314EA52
:100CA000C211F9D0C01A0A0603D0C01E10BDC01A66
:100CB00010BD0A0401D0801E10BD0902FCD0401EE8
:100CC00010BD032A40F2308010F0030C00F01580B4
:100CD00011F8013BBCF1020F624498BF11F801CB3F
:100CE00000F8013B38BF11F8013BA2F1040298BFA4
:100CF00000F801CB38BF00F8013B11F0030300F00E
:100D00002580083AC0F0088051F8043B083A51F8B1
:100D100004CBA0E80810F5E7121D5CBF51F8043BB6
:100D200040F8043BAFF30080D20724BF11F8013B29
:100D300011F801CB48BF11F8012B24BF00F8013B8B
:100D400000F801CB48BF00F8012B704710B5203ADE
:100D5000C0F00B80B1E81850203AA0E81850B1E874
:100D60001850A0E81850BFF4F5AF5FEA027C24BF2A
:100D7000B1E81850A0E8185044BF18C918C0BDE821
:100D800010405FEA827C24BF51F8043B40F8043BEA
:100D900008BF7047D20728BF31F8023B48BF11F89F
:100DA000012B28BF20F8023B48BF00F8012B7047F9
:100DB0004FF000020429C0F0128010F0030C00F084
:100DC0001B80CCF1040CBCF1020F18BF00F8012B02
:100DD000A8BF20F8022BA1EB0C0100F00DB85FEAD0
:100DE000C17C24BF00F8012B00F8012B48BF00F89C
:100DF000012B70474FF0000200B51346944696460B
:100E0000203922BFA0E80C50A0E80C50B1F120011D
:100E1000BFF4F7AF090728BFA0E80C5048BF0CC0CB
:100E20005DF804EB890028BF40F8042B08BF704729
:100E300048BF20F8022B11F0804F18BF00F8012B9B
:100E4000704700004FF0013C50F8042B51F8043B70
:100E50009A4221D1A2EB0C03934313EACC1317D18E
:100E600050F8042B51F8043B9A4215D1A2EB0C0325
:100E7000934313EACC130BD150F8042B51F8043BE5
:100E80009A4209D1A2EB0C03934313EACC13DBD0B3
:100E90004FF00000704700BFD01A01BAB1FA81F1DB
:100EA00001F0180122FA01F0CB40C1F12001DBB2C0
:100EB000C0B2C01A2CFA01F3D11A914311EAC3113E
:100EC000E6D1704770477047704710B5FFF7FEFADC
:100ED000083010BD704770477047704738B50446FA
:100EE0000A4600206946AFF30080002808BF38BDDD
:100EF00002460099204600F0FBF9012038BD012090
:100F000000F0DEBCF8B5AFF30080054600200C46CB
:100F1000102000BF0646A819A0420DD932466946E6
:100F20000020AFF30080070008BF00F0C9FC009864
:100F3000A04218BF0546C419FFF7C7FF0560074662
:100F4000F01D20F007004619284600F00AF8B442C8
:100F500008BFF8BDA21B31463868BDE8F84000F074
:100F6000C7B900210160C0E901100C3008F006BAD1
:100F70001020704710B5044600F0B2F90068005D1B
:100F8000C00602D504F1200010BD204610BD2DE999
:100F9000F0470D4699469246044600F12408016840
:100FA000880604D5E06921F01001216000E00120ED
:100FB000A84201DD471B00E00027A1697A1902EB76
:100FC0000900081AA0612078C00602D42046AFF3B9
:100FD0000080002608E0D4E901211AF806009047B5
:100FE000206A401C761C20624E45F4DB2078C00647
:100FF0000AD52046AFF3008006E0D4E90121302075
:101000009047206A401C2062381EA7F10107F4DCDB
:1010100007E0D4E9012118F805009047206A401C38
:101020002062281EA5F10105F3DC2046AFF3008005
:101030002078000602D50220BDE8F0870120FBE7FA
:1010400001694A1C02610878704700B58FB0CDE98C
:1010500001310021059105497944CDE9031011467C
:101060006846FFF77FFB0FB000BD0000E5FFFFFF04
:101070003A2800D2303820F02002412A01D3A2F1D0
:101080003700884201D34FF0FF30704702681144A7
:101090001378016018467047D16005497944516161
:1010A00004497944116200211161114600F048B9E8
:1010B000EDFFFFFF89020000426842B1016811F8AC
:1010C000013B23B1521EC0E90012184670470121AE
:1010D000C160881E704742685AB1C368016843B94D
:1010E00083688B4205D0491E521CC0E900120020C3
:1010F00070474FF0FF3070472DE9F0410446164627
:101100000D464769007B80072ED0384608F084F9E9
:1011100050BB3EB3012E02D0022E25D104E0204662
:1011200000F0C8FA05441DE0384608F060F9E168AF
:10113000002841F01001E16005DA204600F058F87F
:101140000120BDE8F081C9030BD56268E16A9142D4
:1011500000D81146A26911442269891A814200DD32
:1011600008460544002D01DA0220EAE7E16A6068DA
:10117000E268814206D29103E06203D522F4003195
:1011800041F01002A6690027AE4213DCE16A8142F9
:1011900001D90B4600E0034603EB060C2369ACEBD8
:1011A000030CAC4506DD814201D98C4600E0844643
:1011B0009C4505D1A760276042F02000A5620DE0A4
:1011C000AD1BE669AE1B8142A66000D90846C01A75
:1011D000281A20605819606022F020000349084056
:1011E000E060002084F84870ABE70000BFCFD7FF75
:1011F000C16821F4001141F08001C16000218160CB
:10120000016070472DE9F047814614460E464FF0C5
:10121000FF383248D5685769054209D03846A16978
:1012200008F042F9002811DB2C48C0430540E56076
:101230002B4632464946384608F050F9A16920F05D
:101240000042B21A11440028A16103D02046FFF7E2
:10125000CFFF4046BDE8F08770B504460569C06A17
:101260006168884200D80846E16821F42011E160F5
:10127000C90312D5A84208D02246411B2846FFF7D1
:10128000C1FF10B14FF0FF3070BD0020E562C4E92E
:101290000150E06820F48030E060002070BD10B59F
:1012A0000446C06820F02000E060A16AA06988427E
:1012B0000DD02046FFF7D0FFE06820F4405040F00A
:1012C0001000E060A06AA0612069E062606044F202
:1012D0004001E0688843E06010BD0000100002009B
:1012E00010B500F021FB001D10BD00BFE51401008A
:1012F00030B404468C464368002B18BF634538BFA2
:101300001846F8D303681844604507D0C81C20F07D
:10131000070000F1040CACEB0100121A2146CCF8D6
:10132000002030BC00220CF10400FFF722B910B5F8
:101330000446FFF7D5FF0068005D00F0010010BD16
:101340002DE9F34F4FF0000A0C4656468DB00120B0
:101350000C9001F10C000B9062690B9801219047F1
:10136000051E2DD0252D2CD0216A8847C0B1626979
:101370000B9801219047216A88470028F7D16269BC
:10138000411E0B98904700E0761CA1690D98884794
:10139000216A88470028F7D1E1690D988847DBE783
:1013A000A1690D988847A842074601D1761CD3E76A
:1013B000E1690D9888477F1C02D1BAF1000F6FD008
:1013C0006BE162690B9800273D46394690472A2811
:1013D00004D162690B98012190470125DFF8D08282
:1013E00062690B9801219047A0F130010A290AD2C5
:1013F0004745E5DC07EB870100EB4107303FDFD4D1
:1014000045F01005ECE7E90601D46FF000476C28C1
:101410000AD04C2814D0682815D06A280DD074281A
:101420001CD07A281AD01DE062690B9801219047E0
:101430006C2802D045F0040514E045F002050DE0EB
:1014400045F020050AE062690B9801219047682861
:1014500002D045F0080505E045F4006562690B9887
:1014600001219047C4E9015765283DD019DC58286F
:101470007AD00CDC452837D004DC252826D041283A
:101480009ED131E046282FD0472899D12CE05B2807
:1014900077D0612828D063287CD0642823D15AE0F3
:1014A000F6E06F2848D008DC66281DD067281BD0DE
:1014B000692821D06E2816D127E0702845D07328DE
:1014C00068D0752847D078280DD14DE0A1690D98D6
:1014D0008847252805463FF469AFE1690D9888479C
:1014E0006D1C3FF46AAFD8E00D9923466A466FF051
:1014F0000100AFF30080C5E045F0400023464FF007
:1015000000026060A80736D43EE0E8077FF447AFEA
:101510002068011D21600068290501D506701BE7C0
:10152000290701D5068017E7A90703D5F117C0E9F8
:10153000006111E706600FE745F0400023464FF0D9
:1015400008026060A80716D41EE040F60E0125EAE6
:101550000100606016E045F0400023464FF00A02AB
:101560006060A80707D40FE045F040006060A8075E
:1015700008D5234610220D996FF00100AFF30080CB
:1015800080E007E0102223460D996FF00100FFF77D
:10159000A3F977E04FF0000963284F46C8464B4651
:1015A000CB4602D05B2806D038E0E80601D4012003
:1015B000A060012732E06269D4F80CB00B980121D9
:1015C00090475E2807D14FF0010949466269D4F877
:1015D0000CB00B989047216939B900210A4603AB3A
:1015E00043F82120491C0829FADBD8B3216949B303
:1015F00008F1010862690B98012190475D28F4D138
:10160000B9F1000F09D0002003A951F82020D243DE
:1016100041F82020401C0828F7DB03AB2069002894
:1016200020794FEA40701ED05B462246CDF80080FC
:10163000CDE901970D9900286FF0010020DAAFF392
:1016400000801FE0C11703AA00EBD1614B1121F00C
:101650001F0102EB8302411A1368012088400343F3
:101660001360C7E719E00D99224600286FF00100CA
:10167000009702DAAFF3008004E0AFF3008001E0EE
:10168000AFF3008000280ADA401C06D10C9820B184
:101690004FF0FF300FB0BDE8F08F5046FAE7E90792
:1016A00001D10AF1010A064400200C9054E6000022
:1016B000CCCCCC0C10B50146C268900703D0900684
:1016C00007D5886A0AE000F034F901210160881E1C
:1016D00010BD8B69486818440B69C01A91F84830EE
:1016E0001BB191F84910401A10BD1103FCD5002818
:1016F000FADD401E10BD000010B565485421FFF70B
:1017000079FB64485421FFF775FB63485421FFF7C8
:1017100071FB62485E49624A624B01605D4810603D
:101720005D4A1A60431C0B65511C01650120106560
:1017300057484C3007F022FE56484C3007F01EFE4A
:1017400055484C3007F01AFE574807F017FE584826
:101750004F4A56A17844FFF7FCF920B95448784421
:101760000A3800F00CFA54484A4A52A17844FFF76C
:10177000F0F920B9504878440A3800F000FA4F4890
:10178000454A4CA17844FFF7E4F920B94B48784426
:101790000A3800F0F4F940233D48DC0000212246DD
:1017A00000F0B4F920B142487844543800F0E7F929
:1017B000384822464023002100F0A8F920B13E48D5
:1017C0007844543800F0DBF93348224610230021D6
:1017D00000F09CF9002806D038487844BDE8104055
:1017E000563800F0CCB910BD2B482DE9F041006D02
:1017F0002D4E20F00104304607F0B0FD244D4C354D
:10180000284607F0ABFD2248FFF70CF9284607F001
:10181000CBFD2846AFF300801E4D4C35284607F01F
:101820009DFD1C48FFF7FEF8284607F0BDFD284641
:10183000AFF30080184D4C35284607F08FFD164851
:10184000FFF7F0F8284607F0AFFD2846AFF3008019
:1018500014E0206D20F0010504F14C00074607F06C
:101860007DFD2046FFF7DEF8384607F09DFD38463F
:10187000AFF300802046FEF7ADFE2C46002CE8D1E9
:10188000304607F091FD0848AFF30080BDE8F081D5
:10189000FC17012050180120A4180120F00000209E
:1018A000F4000020F8000020EC000020720000008E
:1018B0001013010077000000FF120100EF12010079
:1018C00010B500F063F9BDE8104000F053B9000016
:1018D00001491820ABBEFEE726000200704775469E
:1018E000FEF7F4FDAE4605006946534620F00700BA
:1018F000854618B020B5FEF7D7FDBDE820404FF073
:1019000000064FF000074FF000084FF0000B21F0E9
:101910000701AC46ACE8C009ACE8C009ACE8C009B6
:10192000ACE8C0098D46704710B5FEF7CFFD2030FA
:1019300010BD07F0D3BC2DE9F04705460C46C8683A
:1019400020F4201040F48000C860800602D50846CC
:10195000FFF7A5FCE06841F282014FF0FF3901403A
:10196000022903D02046FFF743FCB5E000F42041F4
:10197000B1F5004F0FD1C00306D56168E06A884217
:1019800000D80846606006E02069E0626060606937
:1019900007F02DFDA061A0680022EEB200280DDA4C
:1019A000E1688B050AD4C043A06041F49030226006
:1019B000E0606068411C61600670A5E0E0689046E8
:1019C000226040F40050E060206968BB606907F065
:1019D00023FD012704F12405A0B1A08910F4407F64
:1019E00008D0E069FEF7BBFD206118B1E06840F463
:1019F000006016E0E7612561E06820F4407040F483
:101A000080600EE0E069FEF7AAFD00282061F1D0B9
:101A1000E06840F4006010F4407FE06002D140F4E0
:101A20008070E06020696060E06825696FF0010AFD
:101A3000C1051FD56168E06A884200D80846411B8D
:101A400004D022462846FFF7DDFBF0BBE068010228
:101A500003D5E562C4E9015854E0691CE1626160A4
:101A6000E16940F48030491EC4E9021030462E700E
:101A7000BDE8F087010202D500F480320AE0606818
:101A8000411C61600670E0680A2E40F48030E0601E
:101A900006D00022E16A6068814203D90B4602E069
:101AA0000122F7E70346A7895B1B7F0503D4E7699B
:101AB0009F4200DDE2B1814200D80146E5620F1A83
:101AC000C4E90158002B09DD00E005E02246194673
:101AD0002846FFF797FB08B14846C9E747B1A06918
:101AE000E5626560C01BA061E06840F01000E06046
:101AF000E068000208D56168A069E562491B0844F6
:101B00006560A0615046B3E73046B1E72DE9F04784
:101B100004461E4690460D46C7684C30814607F085
:101B20001DFCB80714D0780212D44046B8F5807F67
:101B300009D0B0F5007F06D0B8F5806F08D1012636
:101B400004F1240506E0701E6FF07F41884201D346
:101B5000012409E02561E6616560E06820F47060B9
:101B600040EA0800E0600024484607F01DFC2046DB
:101B7000BDE8F087002801D0FFF7AABE704710B576
:101B800000F066F8BDE81040FFF7F4BF10B501287B
:101B900005D0002103A000F041F8012010BD09A1EB
:101BA000F8E7000053494752544D454D3A204F75D0
:101BB00074206F662068656170206D656D6F727945
:101BC000000000003A2048656170206D656D6F72FD
:101BD0007920636F72727570746564002DE9F0414D
:101BE00014460D46074601F14C06304607F0B6FB99
:101BF000094B7B44224629463846FFF726FA04461D
:101C0000287B000601D54FF0FF34304607F0CCFBAF
:101C10002046BDE8F08100009994000070B50546AB
:101C20000C460A2000E06D1C00F02CF835B1287835
:101C30000028F8D102E0641C00F024F814B12078E8
:101C40000028F8D1BDE870400A2000F01BB8000061
:101C500010B5014602A0FFF7E1FF012010BD000012
:101C600053494752545245443A205265646972655B
:101C700063743A2063616E2774206F70656E3A203A
:101C80000000000008B569468DF800000320ABBED7
:101C900008BD00000000000070B52348808B00F0F4
:101CA000040010B94FF0FF3070BD00241F480568D4
:101CB00000201E4908601D481038006820F0090007
:101CC0001A49103908601A4800F058FF00B1641E24
:101CD000184800F053FF08B14FF0FF3402E01348FA
:101CE0004430006811480C3000680028F7D10E48D5
:101CF000406820F001000C4948600846406820F028
:101D0000080048600846406820F0400048600846E7
:101D1000406820F08000486007480449091F0860B7
:101D2000081D05602046BFE78CCE00203C2C0140FA
:101D3000CCCD00202CCE0020FF07400000BFFEE7E6
:101D400001460548808B00F0020010B94FF0FF30CB
:101D500070476FF00300FBE78CCE002070B504469F
:101D60005448007900F0020010B94FF0FF3070BD08
:101D7000012C0CD0022C0AD0032C08D0042C06D045
:101D8000052C04D0062C02D06FF00400EFE7072CDE
:101D90005AD2DFE804F08B045A6C7E8B88004648E8
:101DA000006820F4B84201F0030010B1012806D108
:101DB00002E042F4006205E042F4804202E06FF08B
:101DC0000300D4E700BF01F0040020B1042803D1D0
:101DD00042F4006203E002E04FF0FF30C7E700BFCB
:101DE00001F0100008B142F480523448806920F0BC
:101DF000087301F0200018B142F4806243F00073D0
:101E000001F0400028B143F400130120294EF07185
:101E100002E00020274EF0712848836126480260C6
:101E2000406820F0310501F0800008B945F0200538
:101E300001F4807008B145F0100501F4007008B19C
:101E400045F001051C48456030E01B48006820F063
:101E500008021A48806920F4005319B142F00802C0
:101E600043F4005314480260144883611EE0124892
:101E7000006820F004021148806920F0020319B1C3
:101E800042F0040243F002030B4802600B488361F6
:101E90000CE001F0020028B10848806940F480108D
:101EA000064EB06102E00448C16100BF00BF0020DF
:101EB0005DE7000000A90020008002400090024081
:101EC0002DE9F04186B080460C466848808B00F0D2
:101ED000020020B94FF0FF3006B0BDE8F081B8F144
:101EE0000E0F75D2DFE808F0BC0734455EBCBC833A
:101EF000BCBC92BC96A527465D48874200D300BF74
:101F00005B483844401EB0FBF7F6022E01D2002693
:101F100000E0B61EFF2E00D9FF265648006840F2AA
:101F2000FF41884340F48070304352490860B01C40
:101F30004F49B1FBF0F7B42500E06D1E002DFCD138
:101F40004A48808B40F00400484988833846C3E7FC
:101F500014B1012C08D106E04648006820F4005076
:101F60004449086003E002E06FF00300B4E700BFFB
:101F700079E01CB1012C03D1122504E0022502E016
:101F80006FF00300A8E700BF042001900295012034
:101F90000390032004900C20059001A9364801F01D
:101FA00021F960E024B1012C09D0022C1AD110E0F3
:101FB0003048006820F4C0502E49086015E02D48D4
:101FC000006820F4C05040F400602A4908600CE02A
:101FD00046E02848006820F4C05040F4805025496D
:101FE000086002E06FF0030076E700BF3BE034B129
:101FF0002048006820F400701E49086005E01D4874
:10200000006840F400701B4908602CE0194820303B
:10201000046028E01548406820F0400013494860FB
:1020200014483830006840F48000124938310860A4
:1020300019E034B10D48808B40F080000B49888353
:102040000DE00A48808B20F0800008498883094809
:102050002830006820F4007006492831086002E04A
:102060006FF0030038E700BF002035E78CCE00207A
:10207000006CDC02042C0140000C024002464FF0D0
:10208000FF30704710B5024800F01AFE10BD000086
:102090004003002010B5024800F012FE10BD000001
:1020A0008002002010B53B2001F02AFA014800F020
:1020B00007FE10BDCCCD002010B5452001F020FA60
:1020C000014800F0FDFD10BD2CCE002010B50248E7
:1020D00000F0F6FD10BD0000E00200200146087887
:1020E00010381823B0FBF3F20848805CC865032A57
:1020F00005D908686FF30900001D886503E00868CA
:102100006FF309008865886D704700007428010826
:10211000014600208A6A8B69CBB932B1012A0DD001
:10212000022A03D0032A10D10EE000BFCB6A03F0CD
:102130008073B3F1807F00D1012007E0CB6AB3F157
:10214000C07F00D1012001E000E000BF34E08B69D6
:10215000B3F5005F1AD132B1012A07D0022A03D0A9
:10216000032A11D10AE000BF01200EE0CB6A03F080
:102170008073B3F1807F00D1012006E0CB6AB3F118
:10218000C07F00D1012000E000BF15E032B1012A7C
:1021900005D0022A04D0032A0CD103E000BF00BFFF
:1021A000012008E0CB6A03F08073B3F1807F00D197
:1021B000012000E000BF00BF704730B5046824680C
:1021C00024F4802405682C60046863608468402CD3
:1021D00004D10468A2600468E16003E00468A160BF
:1021E0000468E26030BD704770B50024104845694E
:1021F000104828400E49486105F0010008B144F03C
:10220000020405F0400008B144F001040A48866B5E
:1022100006F0080018B10848C06A44F0040434B15C
:102220000648006818B1054801682046884770BD17
:1022300000900240410001000080024000A90020FF
:1022400008B5564988420FD100BF0021009154497A
:10225000096841F00101524A11601146096801F014
:102260000101009100BF97E04E4988420FD100BFA5
:10227000002100914A49096841F00201484A116071
:102280001146096801F00201009100BF84E046494F
:1022900088420FD100BF002100914149096841F0F7
:1022A00004013F4A11601146096801F004010091E0
:1022B00000BF71E03D4988420FD100BF002100916D
:1022C0003749096841F00801354A1160114609682B
:1022D00001F00801009100BF5EE0354988420FD14E
:1022E00000BF002100912E49096841F010012C4ADD
:1022F00011601146096801F01001009100BF4BE028
:102300002C4988420FD100BF00210091244909685F
:1023100041F02001224A11601146096801F02001B4
:10232000009100BF38E0244988420FD100BF00214E
:1023300000911B49096841F04001194A116011469A
:10234000096801F04001009100BF25E01B49884267
:102350000FD100BF002100911149096841F08001AF
:102360000F4A11601146096801F08001009100BF19
:1023700012E0134988420FD100BF002100910849A3
:10238000096841F48071064A11601146096801F438
:102390008071009100BF00BF08BD00000000024036
:1023A000303802400004024000080240000C0240A5
:1023B000001002400014024000180240001C0240BD
:1023C0000020024008B5564988420FD100BF0021C5
:1023D00000915449096841F00101524A11601146C7
:1023E000096801F00101009100BF97E04E49884261
:1023F0000FD100BF002100914A49096841F0020154
:10240000484A11601146096801F00201009100BFBD
:1024100084E0464988420FD100BF00210091414924
:10242000096841F004013F4A11601146096801F052
:102430000401009100BF71E03D4988420FD100BF07
:10244000002100913749096841F00801354A1160BF
:102450001146096801F00801009100BF5EE03549AE
:1024600088420FD100BF002100912E49096841F038
:1024700010012C4A11601146096801F01001009109
:1024800000BF4BE02C4988420FD100BF00210091D2
:102490002449096841F02001224A11601146096867
:1024A00001F02001009100BF38E0244988420FD19B
:1024B00000BF002100911B49096841F04001194A01
:1024C00011601146096801F04001009100BF25E04C
:1024D0001B4988420FD100BF0021009111490968B2
:1024E00041F080010F4A11601146096801F0800136
:1024F000009100BF12E0134988420FD100BF0021B4
:1025000000910849096841F48071064A116011463A
:10251000096801F48071009100BF00BF08BD000090
:10252000000002403038024000040240000802402F
:10253000000C02400010024000140240001802404B
:10254000001C024000200240704700000146074A7C
:1025500012780AB9002008E0054AC1F3C623D25C0C
:10256000C1F30223DA4002F001007047801D012010
:10257000001D012070B500BF0C48866900F06EF99F
:10258000054600BF294609481830FDF787FE044676
:1025900000BFB442F0D1A54206D200BF03481030BC
:1025A000FDF773FE00BF00BF284670BD801D0120EF
:1025B0002DE9F04104460D4616462046FFF7C6FFBA
:1025C00010B90120BDE8F081FFF7D4FF0746A4B29F
:1025D00000BFEFF3058010B14FF4002000E00020B1
:1025E000044344F0407033462A46394600F0CAF8A6
:1025F00080464046E6E72DE9F05F04460F469046E8
:102600009946DDF828A02046FFF7A0FF10B9012069
:10261000BDE8F09FFFF7AEFF8346A4B200BFEFF323
:10262000058010B14FF4002000E00020044300F0CA
:102630007DF94FF4E02101EA004544EA050141F04B
:10264000807043463A46594600F09CF806460EB95B
:102650000020DDE745F0010141F0007053464A4695
:10266000594600F08FF806463046D1E72DE9FC4781
:10267000044688461546B8F1000F01D0802D02D9D6
:102680000020BDE8FC872046FFF760FF08B9012065
:10269000F7E7FFF76FFF8246A4B200BFEFF30580B4
:1026A00010B14FF4002000E000200443464645B935
:1026B00000231A465146204600F064F80746384683
:1026C000DFE7082D16D80020009001902A463146F9
:1026D0006846FEF7F6FA4FF4E02000EA05400443AE
:1026E00044F040705146DDE9002300F04BF8074606
:1026F0003846C6E700F01AF94FF4E02101EA004934
:1027000030680090706801900836083D44EA09047A
:1027100044F080705146DDE9002300F033F80746AD
:102720000FB90020ADE74FF6017049EA000410E050
:1027300030680090706801900836083D5146204688
:10274000DDE9002300F01EF80746641C0FB90020E5
:1027500097E7082DECD80020009001902A463146DA
:102760006846FEF7AEFA24F47F4444EA052444F0B8
:1027700000705146DDE9002300F004F807463846B2
:102780007FE700002DE9FF4F81B0884691469A46C9
:102790004FF0070B51E000BF2E48FDF776FD0646CF
:1027A00006F03F002C4901EB0014B0094FF4700112
:1027B00001EA00510091DDE9001008434FF080511B
:1027C00001EAD80108434FF0005101EA990108439A
:1027D0004FF0804101EA5A01084340F04065294624
:1027E00004F10C00FDF762FD054605F0806010B3B2
:1027F00085F0806585F0004505F0004728F0004031
:102800003843206029F00040384360602AF00040DF
:102810003843A060294604F10C00FDF758FD48B18B
:1028200000BF0C48001DFDF730FD00BF012005B0C2
:10283000BDE8F08F04E0ABF1010BBBF1000FAAD1B2
:1028400000BF00BF03480830FDF71FFD00BF002098
:10285000EDE70000841D01200019012001484068B7
:1028600070470000001000E00146002248F23310DB
:10287000FFF79EBE0146002248F25710FFF798BEB0
:1028800008B5009313460A4601460248FFF7B3FE17
:1028900008BD00005F8103000A4601460148FFF7BA
:1028A000E5BE00005981030008B5002300931346DC
:1028B0000A46014648F23610FFF79DFE08BD08B5EE
:1028C0000023009313460A46014648F23710FFF7EB
:1028D00092FE08BD08B5009313460A46014648F229
:1028E0003460FFF788FE08BD08B500230093134647
:1028F0000A46014648F23360FFF77DFE08BD08B581
:10290000009313460A46014648F23560FFF773FE0E
:1029100008BD000001480068704700006C290108EC
:102920000148006870470000182A010810B50248E5
:10293000FDF7A2FC10BD0000811D01200EB5002096
:1029400001901748807A00F0020028B1144801AACB
:102950001F21036801209847BDF80400012121EAE6
:102960009001029861F301000290BDF80400010992
:10297000029861F3820002900298009960F30101CD
:10298000009102988108009861F3820000900298FB
:10299000C108009861F3DF00009000980EBD0000B0
:1029A000F4A8002038B5002000900848807A00F094
:1029B000020028B105486A46012103680846984785
:1029C000BDF80000C0F38004204638BDF4A8002004
:1029D000014611B96FF0040070470C48007900F00F
:1029E000020010B94FF0FF30F6E70948026C100AF8
:1029F00048710A710648426C100EC870100C88703D
:102A0000100A48700A700020E6E7000000A90020C4
:102A10000080024010488079104A02EB40100168A3
:102A20000D48007900F0020008B90020704701F05D
:102A3000004008B10020F9E701F4004028B901F492
:102A4000007010B101F4807010B94FF0FF30EDE765
:102A5000C1F30D40001FE9E700A900200CA90020E8
:102A600001464FF0FF30704708B520484068009994
:102A700060F3000100911D4840684108009861F32F
:102A800041000090194840688108009861F3820075
:102A9000009016484068C108009861F3C300009098
:102AA000124840680109009861F3041000900F4833
:102AB00040684109009861F3451000900B48406858
:102AC0008109009861F38610009008484068C109A8
:102AD000009861F3C710009004484068010A00980C
:102AE00061F31F200090009808BD00008CCE0020EC
:102AF00001464FF0FF30704708B50248006800906B
:102B000008BD0000FC28010808B5024800680090D4
:102B100008BD00006829010808B502480068009057
:102B200008BD0000142A010810B504460CB90120A4
:102B300010BD607920B900202071204600F004F813
:102B4000012060710020F3E708B50A4A016891424C
:102B50000FD100BF002100910749096841F480515D
:102B6000054A11601146096801F48051009100BFC7
:102B700000BF08BD003002403038024070B5044646
:102B8000A56D00F047FC064694F83500022808D0F1
:102B90008020606500BF002084F8340000BF012061
:102BA00070BD2068006820F0160021680860206869
:102BB000406920F0800021684861206C08B9A06C51
:102BC00028B12068006820F00800216808602068AB
:102BD000006820F00100216808600FE000F01AFC96
:102BE000801B05280AD92020606500BF002084F8DA
:102BF000340000BF032084F83500D1E72068006866
:102C000000F001000028E9D194F85C103F208840D2
:102C1000A86000BF002084F8340000BF012084F8C1
:102C200035000020BCE7014691F83500022803D0AA
:102C30008020486501207047052081F8350008682C
:102C4000006820F001000A6810600020F3E770B50A
:102C500004460CB9012070BD94F83500022800D15B
:102C6000F9E72068006820F0010021680860002072
:102C70002168086021684860216888602168C86010
:102C8000216808612120216848612046FFF726FA63
:102C900005460020E06320646064A064E064206571
:102CA00094F85C103F208840A8600020606584F89C
:102CB000350000BF84F8340000BF00BFCBE7000040
:102CC000F8B50446002000908C4800684FF4165177
:102CD000B0FBF1F7A56D2E6894F85C1008208840D1
:102CE000304098B12068006800F0040070B120689E
:102CF000006820F004002168086094F85C10082047
:102D00008840A860606D40F00100606594F85C1038
:102D100001208840304068B12068406900F08000A0
:102D200040B194F85C1001208840A860606D40F0CC
:102D30000200606594F85C1004208840304068B15F
:102D40002068006800F0020040B194F85C10042094
:102D50008840A860606D40F00400606594F85C10E5
:102D600010208840304078B32068006800F00800E8
:102D700050B394F85C1010208840A8602068006868
:102D800000F4802080B12068006800F4002028B999
:102D9000206CC8B12046216C884715E0A06C98B122
:102DA0002046A16C88470FE02068006800F480701E
:102DB00028B92068006820F0080021680860206CAD
:102DC00010B12046216C884794F85C102020884080
:102DD0003040002865D02068006800F0100000280E
:102DE0005FD094F85C1020208840A86094F83500EB
:102DF000052828D12068006820F0160021680860A6
:102E00002068406920F0800021684861206C08B982
:102E1000A06C28B12068006820F0080021680860D4
:102E200094F85C103F208840A86000BF002084F820
:102E3000340000BF012084F83500206D10B1204619
:102E4000216D8847F8BD2068006800F4802080B1BB
:102E50002068006800F4002028B9606C10B120469A
:102E6000616C88471DE0E06BD8B12046E16B884774
:102E700017E02068006800F4807068B92068006876
:102E800020F010002168086000BF002084F83400A2
:102E900000BF012084F83500E06B10B12046E16BE3
:102EA0008847606D38B3606D00F00100F0B1052017
:102EB00084F835002068006820F00100216808606F
:102EC00000BF0098401C0090B84200D905E020687F
:102ED000006800F001000028F3D100BF00BF00200F
:102EE00084F8340000BF012084F83500E06C10B194
:102EF0002046E16C884700BFA4E700005C0000208A
:102F00002DE9F0410446002500F084FA074614B983
:102F10000120BDE8F081606A00B100BF00BF002061
:102F200084F8340000BF022084F83500206800686F
:102F300020F00100216808600AE000F06BFAC01B75
:102F4000052805D920206065032084F83500E0E7D6
:102F50002068006800F001000028EED120680568B4
:102F600021480540D4E901010843E168084321698B
:102F7000084361690843A1690843E1690843216A7C
:102F800008430543606A042803D1D4E90B010843D0
:102F90000543206805602068456925F00705606ADB
:102FA0000543606A04280DD1A06A0543E06A48B170
:102FB0002046FFF7ADF828B140206065012084F875
:102FC0003500A6E7206845612046FFF787F80646EA
:102FD00094F85C103F208840B060002060650120BC
:102FE00084F83500002094E73F8010F02DE9F04789
:102FF00004460D4616461F464FF00008D4F8589078
:1030000000BF94F83400012802D10220BDE8F08707
:10301000012084F8340000BF94F83500012825D140
:10302000022084F83500002060653B463246294680
:103030002046FFF7C2F894F85C103F208840C9F89A
:1030400008002068006840F0160021680860206CC5
:1030500028B12068006840F00800216808602068F6
:10306000006840F001002168086006E000BF002011
:1030700084F8340000BF4FF002084046C6E7000065
:10308000F0B50C46002500220023002192E0012625
:1030900006FA01F504EA0502AA427DD1474E8F08DF
:1030A00056F827308E07370F0F26BE403340444E68
:1030B000B04201D1002623E0424EB04201D10126A8
:1030C0001EE0414EB04201D1022619E03F4EB0420F
:1030D00001D1032614E03E4EB04201D104260FE098
:1030E0003C4EB04201D105260AE03B4EB04201D130
:1030F000062605E0394EB04201D1072600E0082639
:103100008F073F0FBE409E4222D1354E3668964310
:10311000334F3E603E1D366896433F1D3E603E1D68
:10312000366896433F1D3E603E1D366896433F1D00
:103130003E608E07370F0F2606FA07F31F4E8F08E3
:1031400056F827609E431D4F4FEA910C47F82C60BC
:1031500006684FEA410C032707FA0CF7BE430660E6
:10316000CF0800F1200656F827604F074FEAD76CCA
:103170000F2707FA0CF7BE434FEAD10C00F12007E6
:1031800047F82C60C6684FEA410C032707FA0CF792
:10319000BE43C660466800E00BE001278F40BE4397
:1031A000466086684FEA410C032707FA0CF7BE43D6
:1031B0008660491C1029FFF46AAFF0BD0838014051
:1031C000000002400004024000080240000C0240DF
:1031D000001002400014024000180240001C02408F
:1031E000003C0140F8B502460B46002500240020B3
:1031F0000021DCE0012606FA01F51E6806EA050456
:10320000AC4273D15E68012E08D05E68022E05D0F4
:103210005E68112E02D05E68122E13D190684F00A6
:103220000326BE40B0434F00DE68BE40304390608E
:10323000506801268E40B0431E79C6F300168E40BA
:1032400030435060D0684F000326BE40B0434F006B
:103250009E68BE403043D0605E68022E02D05E6839
:10326000122E13D1CF0802F1200656F827004E0780
:10327000F70E0F26BE40B0434F07FF0E1E69BE403B
:103280003043CF0802F1200646F8270010684F00AF
:103290000326BE40B0431E7906F003064F00BE4031
:1032A000304310605E6806F08056B6F1805F7DD1D5
:1032B00000BF00260096404E366846F480463E4FDA
:1032C0003E603E46366806F48046009600BF00BF6A
:1032D0003A4E8F0856F827008E07370F0F26BE404C
:1032E000B043374EB24202D1002624E05EE0354EB4
:1032F000B24201D101261EE0334EB24201D1022674
:1033000019E0324EB24201D1032614E0304EB242EF
:1033100001D104260FE02F4EB24201D105260AE06A
:103320002D4EB24201D1062605E02C4EB24201D10B
:10333000072600E008268F073F0FBE4030431F4E90
:103340008F0846F82700264E3068A0435E6806F4D2
:103350008036B6F5803F00D12043214E3060361DC7
:103360003068A0435E6806F40036B6F5003F00D131
:1033700020431B4E361D3060361D3068A0435E680A
:1033800006F48016B6F5801F00D12043144E08368F
:103390003060361D3068A0435E6806F40016B6F54E
:1033A000001F00D120430E4E0C363060491C1029FE
:1033B000FFF420AFF8BD0000443802400838014057
:1033C000000002400004024000080240000C0240DD
:1033D000001002400014024000180240001C02408D
:1033E000003C0140024613690B400BB1012000E094
:1033F0000020704742690A408A4202D10A04826171
:1034000000E0816170470AB1816101E00B048361D2
:10341000704700000148006870470000500000201D
:1034200001464AF6AA200A68106000207047000092
:1034300010B50D48006840F400700B49086008465C
:10344000006840F4806008600846006840F48070BE
:103450000860032000F0D6F8002000F007F800F024
:103460002BF8002010BD0000003C024070B504465F
:103470000E4800784FF47A71B1FBF0F00C490968FE
:10348000B1FBF0F5284601F005FF08B1012070BD41
:10349000102C07D200222146501E00F075F8054876
:1034A000046001E00120F2E70020F0E7580000206E
:1034B0005C0000205400002008B500BF00200090F0
:1034C0000E48006840F480400C49086008460068D7
:1034D00000F48040009000BF00BF00BF00200090BB
:1034E000081F006840F08050091F08600846006807
:1034F00000F08050009000BF00BF08BD443802407B
:1035000010B501460846002807DB00F01F03012222
:103510009A40034B440943F8242000BF10BD00002B
:1035200080E200E010B501460846002817DB00F0F5
:103530001F0301229A400B4B440943F8242000BF8B
:1035400000BF00BFBFF34F8F00BF00BF00BF00BF71
:1035500000BF00BFBFF36F8F00BF00BF00BF00BF41
:1035600010BD000080E100E001460846002809DBAC
:1035700000F01F0301229A4043099B0003F1E0235E
:10358000C3F8002100BF70472DE9F05F80460D466B
:103590001646002705F032FD074639462A463346CF
:1035A00001F00700C0F1070ABAF1040F02D94FF089
:1035B000040A01E0C0F1070AD14600F1040ABAF199
:1035C000070F02D24FF0000A01E0A0F1030AD4462F
:1035D0004FF0010A0AFA09FAAAF1010A0AEA020AF4
:1035E0000AFA0CFA4FF0010B0BFA0CFBABF1010BD2
:1035F0000BEA030B4AEA0B042146404605F006FDA0
:10360000BDE8F09F00BF00F00702064B19684FF6B7
:10361000FF031940044B0B4343EA0221014B19609D
:1036200000BF70470CED00E00000FA05704710B5D0
:103630000446D4F8040404F0E9FB10BD70B5044658
:103640000D46C5EBC50304F13C0101EB8301CA68DB
:103650002946D4F8040404F006FB70BD70B5044696
:103660000D46C5EBC50304F5FE7101EB8301CA6885
:103670002946D4F8040404F076FB70BD10B5044666
:10368000D4F8040404F0C5FB10BD70B504460E4622
:1036900006F00F006168884201D9012070BD06F074
:1036A000800080280AD106F00F00C0EBC00104F1B1
:1036B0003C0000EB81050120687009E006F00F0076
:1036C000C0EBC00104F5FE7000EB810500206870BE
:1036D0000020A87006F00F00287000BF94F8BC030B
:1036E000012801D10220D9E7012084F8BC0300BFE2
:1036F0002946206805F0E6F800BF002084F8BC03E6
:1037000000BF00BFCAE72DE9F04705460E469046C8
:103710001F464FF0000906F0800080280AD106F00D
:103720000F00C0EBC00105F13C0000EB810401205B
:10373000607009E006F00F00C0EBC00105F5FE70F7
:1037400000EB81040020607006F00F002070C4F8C8
:103750000880E770607808B12078E080022F01D1FE
:103760000020207100BF95F8BC03012802D102207F
:10377000BDE8F087012085F8BC0300BF214628681A
:1037800004F0F0FE00BF002085F8BC0300BF4846EF
:10379000EEE72DE9F04104460E461746984606F03E
:1037A0000F00C0EBC00104F5FE7000EB8105EF6077
:1037B000C5F814800020A861687006F00F0028701A
:1037C0002069012800D12F6106F00F0028B9227C62
:1037D0002946206804F052FF04E0227C2946206834
:1037E00005F004F90020BDE8F08170B504460D46EF
:1037F00005F00F006168884201D9012070BD05F015
:10380000800080280AD105F00F00C0EBC00104F150
:103810003C0000EB81060120707007E0C5EBC5019C
:1038200004F5FE7000EB8106002070700120B0707E
:1038300005F00F00307000BF94F8BC03012801D1DF
:103840000220DBE7012084F8BC0300BF314620687A
:1038500005F07FF805F00F0028B9217C04F571729E
:10386000206804F0F7FF00BF002084F8BC0300BF0D
:1038700000BFC3E72DE9F04104460E4617469846BF
:1038800006F00F00C0EBC00104F13C0000EB810525
:10389000EF60C5F814800020A8610120687006F070
:1038A0000F0028702069012800D12F6106F00F0059
:1038B00028B9227C2946206804F0E0FE04E0227C3E
:1038C0002946206805F092F80020BDE8F0812DE936
:1038D000FE4F044620680290029E206805F053FACD
:1038E00000287DD1206805F08DFA08B9BDE8FE8F6B
:1038F000206805F087FA00F00200022805D1206850
:10390000406900F0020021684861206805F07AFAF9
:1039100000F40020B0F5002F58D10025206805F0F4
:1039200041FA82464FE00AF00100002848D0E9B28F
:10393000206805F05AFA804608F0010048B10121DC
:1039400006F5306000EB451081602946204602F004
:103950006DFA08F00800082809D12946204602F02F
:103960001FFA082106F5306000EB4510816008F071
:103970001000102805D1102106F5306000EB45102D
:10398000816008F0200020280ED12069012805D18F
:1039900004F571720121206804F05CFF202106F516
:1039A000306000EB4510816008F40050B0F5005F16
:1039B00006D14FF4005106F5306000EB45108160F0
:1039C0006D1C4FEA5A0ABAF1000FACD1206805F01D
:1039D00019FA00F48020B0F5802F7ED1206800E035
:1039E00012E205F0D5F98246002586E00AF00100D2
:1039F00000287FD0E9B2206805F0DEF9804608F0A3
:103A00000100E8B305F00F0101208840019040F665
:103A100034008159019821EA000040F634018851B0
:103A2000012106F5106000EB451081602069012836
:103A300015D1C5EBC50104F13C0000EB8100C5EBDD
:103A4000C502C16804F13C0000EB820080680144BB
:103A5000C5EBC50204F13C0000EB8200C160E9B295
:103A60002046FFF7EBFD2069012810D145B9C5EBD1
:103A7000C50104F13C0000EB8100406900B900E0A1
:103A800005E004F571720121206804F0E3FE08F0FE
:103A90000800082805D1082106F5106000EB451044
:103AA000816008F01000102805D1102106F5106083
:103AB00000EB4510816008F04000402805D140210E
:103AC00006F5106000EB4510816008F00200022846
:103AD00008D1022106F5106001E012E00AE000EBD7
:103AE0004510816008F08000802803D129462046D7
:103AF00002F05CFA6D1C4FEA5A0ABAF1000F7FF42B
:103B000075AF206805F07EF900F00040B0F1004F7D
:103B10001CD140F60400805920F0010140F6040059
:103B2000815194F8F403012807D1002084F8F403AC
:103B300000212046FFF77AFD02E0204600F090F9D0
:103B40002068406900F0004021684861206805F065
:103B500059F900F40060B0F5006F0ED140F608008E
:103B6000805900F0010010B1204600F0ABF9206848
:103B7000406900F4006021684861206805F042F95E
:103B800000F48050B0F5805F72D140F60400805997
:103B900020F0010140F6040081511021206805F059
:103BA000C7F8002726E04FF67F3106F5106000EBDE
:103BB0004710816006F5106000EB4710006820F4A4
:103BC000001106F5106000EB471001604FF67F31E1
:103BD00006F5306000EB4710816006F5306000EBC1
:103BE0004710006820F4001106F5306000EB471024
:103BF00001607F1C6068B842D5D840F61C0080592F
:103C000040F0011140F61C008151206B70B1D6F8D4
:103C1000840840F00B01C6F8841840F6440080592F
:103C200040F00B0140F6440081510FE040F61400D3
:103C3000805942F22B01084340F614018851081FB5
:103C4000805940F00B014FF401608151D6F8000813
:103C500020F4FE60C6F80008217C04F5717220682B
:103C600004F0F8FD2068406900F480502168486144
:103C7000206805F0C7F800F40050B0F5005F17D1D8
:103C8000206804F0D7FC206805F06AF8E06000F0D6
:103C9000C5FA0090227B2068009905F0DFF82046E5
:103CA00000F0C6F82068406900F4005021684861BF
:103CB000206805F0A7F800F01000102846D1206811
:103CC000806920F01000216888610298D0F8209067
:103CD00009F00F00C0EBC00104F5FE7000EB810B92
:103CE000C9F3434002281AD147F6F07009EA0000F0
:103CF00030B3C9F30A12DBF80C10029805F087F80C
:103D0000C9F30A11DBF80C000844CBF80C00C9F326
:103D10000A11DBF818000844CBF8180010E0C9F3CA
:103D2000434006280CD1082204F57171029805F071
:103D30006EF8C9F30A11DBF818000844CBF8180034
:103D40002068806940F0100021688861206805F0D3
:103D500059F800F00800082808D1204600F087F83C
:103D60002068406900F0080021684861206805F07B
:103D700049F800F48010B0F5801F0AD100252946CB
:103D8000204600F043F82068406900F48010216864
:103D90004861206805F036F800F40010B0F5001F07
:103DA0000AD100252946204600F039F820684069EC
:103DB00000F4001021684861206805F023F800F045
:103DC0008040B0F1804F08D12046FFF730FC2068DA
:103DD000406900F0804021684861206805F012F8D1
:103DE00000F0040004280FD12068D0F8049009F0F6
:103DF0000400042802D12046FFF740FC20684068F8
:103E000040EA09002168486000BF6FE570B50446CC
:103E10000D462946D4F8040404F024F870BD70B5AA
:103E200004460D462946D4F8040404F01EF870BD7B
:103E300070B504460125E06808B9002506E0E06891
:103E4000022801D1012501E0FEF77EFB2946D4F8C6
:103E5000040404F083F8D4F8040404F039F870BDC5
:103E600010B50446D4F8040404F060F810BD10B591
:103E70000446D4F8040404F060F810BD70B504469C
:103E80000D4600BF94F8BC03012801D1022070BD8B
:103E9000012084F8BC0300BF84F83850294620680C
:103EA00004F0C6FF00BF002084F8BC0300BF00BFC1
:103EB000EDE710B5044604F57171D4F8040404F07C
:103EC00064F810BD10B50446D4F8040404F0A7F853
:103ED0002068D0F8000E40F001002168C1F8000E03
:103EE000206A28B10348006840F0060001490860D4
:103EF00010BD000010ED00E0F8B5044600250026D6
:103F0000207800F0010020B9207800F00400042897
:103F10002FD100205B498866FFF77CFA054606E052
:103F2000FFF778FA401B022801D90320F8BD564854
:103F30000068C0F3C0600028F2D160688101207A77
:103F400041EA007050498431086001204D4988667B
:103F5000FFF760FA054606E0FFF75CFA401B02280F
:103F600001D90320E2E748480068C0F3C060002898
:103F7000F2D0207800F0020002287DD100BF00209E
:103F8000009041484030006840F080503E49403148
:103F900008600846006800F08050009000BF00BF35
:103FA0003A48006840F4807038490860FFF732FAF8
:103FB000054606E0FFF72EFA401B022801D9032030
:103FC000B4E73248006800F480700028F2D02E4830
:103FD0007030006800F440764EB3A08900F4407061
:103FE000B04224D028487030006820F44076012088
:103FF0002749086000200860234870300660006888
:1040000000F0010098B1FFF705FA054608E0FFF758
:1040100001FA401B41F28831884201D9032085E72B
:10402000194870300068C0F340000028EFD000BF8E
:10403000A08900F44070B0F5407F0CD112480830E0
:10404000006820F4F810134AE168114008430E4953
:104050000831086007E00C480830006820F4F810C8
:10406000094908310860084870300068A189C1F327
:104070000B010843044900E002E07031086000BF12
:10408000002053E700004742003802400070004023
:10409000400E4742FFFCFF0F70B504460D460CB9B9
:1040A000012070BD5848006800F00F00A84209D2F6
:1040B00055490D700846006800F00F00A84201D075
:1040C0000120EEE7207800F0020002281DD12078C0
:1040D00000F00400042805D14C48006840F4E0508A
:1040E0004A490860207800F00800082805D14748B0
:1040F000006840F46040454908604448006820F08A
:10410000F000A168084341490860207800F00100F0
:10411000A8B36068012807D13C4808380068C0F39C
:104120004040B8B90120BCE76068022802D060684E
:10413000032807D1354808380068C0F3406048B903
:104140000120AEE7314808380068C0F3400008B9E4
:104150000120A6E72D48006820F0030061680843AD
:104160002A490860FFF756F9064609E0FFF752F9B9
:10417000801B41F28831884202D9032091E707E091
:104180002248006800F00C006168B0EB810FEDD1AF
:104190001D48006800F00F00A84209D91A490D70A7
:1041A0000846006800F00F00A84201D0012078E71F
:1041B000207800F00400042807D11448006820F497
:1041C000E050E168084311490860207800F00800D9
:1041D000082808D10D48006820F46040216940EAB1
:1041E000C1000A49086000F03FF808490968C1F3B6
:1041F0000311074A515CC840064908600648006838
:10420000FFF734F900204CE7003C02400838024038
:104210007C2801085C000020540000200148006850
:10422000704700005C00002000B5FFF7F7FF04496D
:104230000968C1F38221034A515CC84000BD0000F7
:10424000083802408C28010800B5FFF7E7FF044951
:104250000968C1F34231034A515CC84000BD000007
:10426000083802408C2801082DE9F0470024002579
:104270000026A1462548006800F00C0020B1042863
:1042800005D008283AD105E0DFF8849039E0DFF85E
:10429000849036E01D48001F006800F03F041B4872
:1042A000001F006800F4800078B11A481749091F00
:1042B0000968C1F38811A0FB017001462246002362
:1042C0003846FCF791F905460EE011480F49091FE1
:1042D0000968C1F38811A0FB017001462246002342
:1042E0003846FCF781F905460848001F0068C0F30E
:1042F0000140401C4600B5FBF6F902E0DFF81090E3
:1043000000BF00BF4846BDE8F08700000838024003
:104310000024F40000127A00F8B504460CB901201C
:10432000F8BD207800F00100002874D0F94800683A
:1043300000F00C0004280DD0F648006800F00C00D6
:10434000082813D1F348001F006800F48000B0F57E
:10435000800F0BD1EF4808380068C0F340400028B8
:1043600059D06068002856D10120D9E700BF6068A5
:10437000B0F5803F08D1E7480838006840F4803045
:10438000E449083908601EE06068B0F5A02F0DD13F
:10439000E0480838006840F48020DE4908390860A9
:1043A0000846006840F4803008600CE0D9480838BE
:1043B000006820F48030D749083908600846006852
:1043C00020F48020086000BF606890B1FFF722F8F9
:1043D000054606E0FFF71EF8401B642801D90320BC
:1043E0009EE7CC4808380068C0F340400028F1D070
:1043F00011E0FFF70FF8054606E0FFF70BF8401B4A
:10440000642801D903208BE7C24808380068C0F34C
:1044100040400028F1D1207800F0020002285FD14E
:10442000BC48006800F00C0058B1BA48006800F0C1
:104430000C0008281CD1B748001F006800F4800059
:10444000B0B9B44808380068C0F3400020B1E06853
:10445000012801D0012063E7AE480838006820F049
:10446000F800216940EAC100AA490839086037E02C
:10447000E06800B30120A8490860FEF7CBFF0546BD
:1044800006E0FEF7C7FF401B022801D9032047E7DB
:10449000A04808380068C0F340000028F1D09D48CB
:1044A0000838006820F0F800216940EAC100994905
:1044B0000839086014E0002097490860FEF7AAFF59
:1044C000054606E0FEF7A6FF401B022801D903209F
:1044D00026E7904808380068C0F340000028F1D172
:1044E000207800F0080008282CD16069A8B10120CC
:1044F0008A490860FEF78EFF054606E0FEF78AFF50
:10450000401B022801D903200AE782486C3000686A
:10451000C0F340000028F1D014E000207F4908607B
:10452000FEF778FF054606E0FEF774FF401B022801
:1045300001D90320F4E677486C300068C0F34000EE
:104540000028F1D1207800F00400042870D1002761
:1045500070483830006800F0805090B900BF0020EB
:1045600000906C483830006840F08050694938311C
:1045700008600846006800F08050009000BF00BF4F
:1045800001276748006800F48070B0B9644800688B
:1045900040F4807062490860FEF73CFF054606E083
:1045A000FEF738FF401B022801D90320B8E65C481B
:1045B000006800F480700028F2D000BFA0680128D5
:1045C00008D154486830006840F001005149683112
:1045D00008601DE0A06805280DD14E4868300068CD
:1045E00040F004004B49683108600846006840F01C
:1045F000010008600CE047486830006820F00100C6
:104600004449683108600846006820F004000860EA
:1046100000BFA068A8B1FEF7FDFE054609E0FEF761
:10462000F9FE401B41F28831884202D9032077E627
:1046300026E0384868300068C0F340000028EED01B
:1046400013E0FEF7E7FE054608E0FEF7E3FE401B39
:1046500041F28831884201D9032061E62D48683053
:104660000068C0F340000028EFD1012F07D129488E
:104670003830006820F0805026493831086000BF8B
:10468000A069002845D02348006800F00C000828E5
:104690005DD0A069022845D100201F490866FEF7B9
:1046A000B9FE054606E0FEF7B5FE401B022801D91B
:1046B000032035E6174808380068C0F3406000283A
:1046C000F1D1D4E907010843616A40EA811101226E
:1046D000A06AC2EB500041EA00412C20005D41EA93
:1046E00000600C49091F086001200B490866FEF7AD
:1046F00091FE054606E0FEF78DFE401B022801D91B
:1047000003200DE6034808380068C0F34060002825
:10471000F1D03FE00838024000004742800E474297
:104720000070004000201C490866FEF773FE054635
:1047300006E0FEF76FFE401B022801D90320EFE5DB
:1047400016480068C0F340600028F2D122E0A0695A
:10475000012800D1E4E511480830066806F480011C
:10476000E069814214D106F03F01206A81420FD1F5
:1047700047F6C0703040616A884209D106F4403182
:10478000A06A814204D106F07061E06A814201D0E2
:104790000120C5E50020C3E5000047420038024083
:1047A0007047704710B5044620688068C0F3003039
:1047B00078B12068C068C0F3002050B12046FFF7F0
:1047C000F0FF2068C06800F0800060F4C0702168CD
:1047D000C86020688068C0F3403078B12068C06845
:1047E000C0F3402050B12046FFF7DAFF2068C068D0
:1047F00000F0800060F420702168C8604FF4003041
:10480000024908600120607710BD0000143C01409F
:1048100070B505460B4616460024286840680E49C8
:1048200000EA0104200CD870C4F30420587004F08E
:104830003F009870C4F3423018705EB9D87801F028
:1048400035FFD870587801F031FF5870987801F032
:104850002DFF9870002070BD3FFFFF0070B504462B
:104860000B46164600252068806A5860206800695B
:10487000C0F30E009860206800680F4900EA010547
:10488000C5F305401870C5F30620587005F07F0089
:10489000987005F48000000CD8705EB9187801F0AB
:1048A00005FF1870587801F001FF5870987801F0F2
:1048B000FDFE9870002070BD7F7F7F0010B504461C
:1048C0000CB9012010BD607F20B900202077204660
:1048D00000F060F80220607700BFCA2021684862BB
:1048E00053202168486200BF204601F0F7FE40B126
:1048F00000BFFF202168486200BF042060770120CC
:10490000E0E72068806822490840216888602169C2
:104910006068084361690843216889680843216821
:1049200088602168E068086120680169208941EA9F
:104930000040216808612068C06820F0800021687C
:10494000C8602068806800F0200060B9204600F050
:1049500053FA40B100BFFF202168486200BF042025
:1049600060770120AEE72068006C20F48020216889
:1049700008642068006CA16908432168086400BFCE
:10498000FF202168486200BF01206077002099E77E
:10499000BFFF8FFF10B504460749206888420AD13F
:1049A000012006490860002211462920FEF7ECFD8F
:1049B0002920FEF7D9FD10BD002800403C0E4742DB
:1049C0002DE9F84103460C461546002600277C4891
:1049D000006840094FF47A71B0FBF1F04843009051
:1049E00000BF187F012802D10220BDE8F881012014
:1049F000187700BF0220587755BB1868806800F010
:104A0000400000B102E00020E07000BFE06900B9A2
:104A100000E000BF207801F054FE4FEA00486078C3
:104A200001F04FFE48EA0028A07801F04AFE48EA6B
:104A30000008E07848EA004894F8200001F041FEC0
:104A400048EA0060E1690843616940EA01061FE045
:104A50001868806800F0400000B102E00020E070BB
:104A600000BFE06900B900E000BF20780004617871
:104A700040EA0120A1780843E17840EA014094F837
:104A8000201040EA0160E1690843616940EA0106DB
:104A9000A169606840EA010700BFCA20196848623E
:104AA00053201968486200BF606AB0F5807F36D134
:104AB0001868806820F48070196888601868C06879
:104AC00000F0800060F4C0701968C86000BF0098F2
:104AD000411E009160B900BFFF201968486200BF05
:104AE0000320587700BF0020187700BF03207CE721
:104AF0001868C06800F001000028E8D01868C66196
:104B0000186847641868806840F480701968886085
:104B10001868806840F480501968886035E018682B
:104B2000806820F40070196888601868C06800F018
:104B3000800060F420701968C86000BF0098411EB2
:104B4000009160B900BFFF201968486200BF0320D0
:104B5000587700BF0020187700BF032045E718688A
:104B6000C068C0F340000028E8D0186806621868E2
:104B700087641868806840F4007019688860186855
:104B8000806840F40050196888600E48006840F45E
:104B900000300C4908600B480830006840F40030D1
:104BA00008490831086000BFFF201968486200BF4B
:104BB0000120587700BF0020187700BF00BF14E71E
:104BC0005C000020003C01402DE9F04104460D4608
:104BD0001646002700BF207F012802D10220BDE831
:104BE000F0810120207700BF022060774EB96878FD
:104BF00000F01000102804D1687800F0EF000A30AF
:104C0000687086B9E87801F05CFD0304687801F00B
:104C100058FD43EA0023A87801F053FD03432878A8
:104C200043EA403709E0E8780004697840EA012067
:104C3000A9780843297840EA413700BFCA20216893
:104C4000486253202168486200BF204601F046FDBB
:104C500060B100BFFF202168486200BF0420607778
:104C600000BF0020207700BF0120B8E71648384079
:104C7000216848602068C06820F080002168C86012
:104C80002068806800F0200080B9204600F0B4F869
:104C900060B100BFFF202168486200BF0420607738
:104CA00000BF0020207700BF012098E700BFFF2051
:104CB0002168486200BF0120607700BF0020207794
:104CC00000BF00BF8BE700003FFFFF002DE9F04170
:104CD00004460D461646002700BF207F012802D15A
:104CE0000220BDE8F0810120207700BF022060771C
:104CF000CEB92068806800F0400000B102E00020DA
:104D0000E87000BF287801F0DCFC0304687801F04B
:104D1000D8FC43EA0023A87801F0D3FC0343E878E9
:104D200043EA004712E02068806800F0400000B1CC
:104D300002E00020E87000BF28780004697840EAAB
:104D40000120A9780843E97840EA014700BFCA205A
:104D50002168486253202168486200BF204601F064
:104D6000BDFC60B100BFFF202168486200BF042085
:104D7000607700BF0020207700BF0120B1E71D4809
:104D80003840216808602068806820F4802021680D
:104D90008860D5E9030108432168896808432168D0
:104DA00088602068C06820F080002168C8602068A2
:104DB000806800F0200080B9204600F01DF860B146
:104DC00000BFFF202168486200BF0420607700BF59
:104DD0000020207700BF012083E700BFFF2021686B
:104DE000486200BF0120607700BF0020207700BF2D
:104DF00000BF76E77F7F7F0070B5044600252068FE
:104E0000C06820F0A0002168C860FEF703FB0546DB
:104E100007E0FEF7FFFA401BB0F57A7F01D90320C7
:104E200070BD2068C06800F020000028F1D000208C
:104E3000F6E77047F8B5044620684668206885683C
:104E4000C5F3801048B905F0010030B1C6F38010F9
:104E500018B12046216C8847F8BDC5F3400030B139
:104E6000C6F3C01018B12046616C8847F4E7C5F35B
:104E7000401030B9C5F3801018B9C5F300200028E0
:104E80007CD0C6F3401000287DD0C5F38010F0B16F
:104E900094F8510003280ED0606D40F00400606566
:104EA00000BF002000902068C068009020688068E3
:104EB000009000BF0BE000BF002000902068C06899
:104EC000009020688068009000BF00BFC4E7C5F371
:104ED000401088B1606D40F00100606500BF0020A7
:104EE00000902068806800902068006820F04000F2
:104EF0002168086000BF00BFC5F3002058B1606D95
:104F000040F00800606500BF0020009020688068C5
:104F1000009000BF00BF606D78B32068406820F04B
:104F2000E00021684860012084F8510006F002008A
:104F3000022802D006F0010008B32068406820F083
:104F4000030021684860E06C50B11048E16C0865CE
:104F5000E06CFDF768FE18B1606D40F040006065E0
:104F6000A06C50B10948A16C0865A06CFDF75BFE10
:104F700018B1606D40F04000606503E003E020463A
:104F8000FFF757FF68E700BF66E700005D6B0008AA
:104F900010B504460CB9012010BD606A00B900BF0D
:104FA0000021A16294F8510028B9002084F8500033
:104FB000204600F033F8022084F851002068006891
:104FC00020F0400021680860D4E901010843E1684D
:104FD00008432169084361690843218B01F400718A
:104FE0000843E1690843216A0843A16A084321682C
:104FF00008600421A06901EA1040616A0843216841
:1050000048602068C06920F400602168C861002001
:105010006065012084F851000020BDE710B586B01E
:105020000446142101A8FBF7E5FE5C49206888428C
:1050300055D100BF002000905948006840F48050CE
:10504000574908600846006800F48050009000BF8F
:1050500000BF00BF0020009051481438006840F0A5
:1050600001004F49143908600846006800F001004B
:10507000009000BF00BF00BF0020009008460068FD
:1050800040F0020008600846006800F0020000904E
:1050900000BF00BF2020019002200290002003905A
:1050A000032004900520059001A93E48FEF79AF8D8
:1050B00030200190022002900020039003200490F1
:1050C0000520059001A93848FEF78CF80022072139
:1050D0002320FEF759FA2320FEF746FA5BE0334916
:1050E0002068884257D100BF002000902C48001F44
:1050F000006840F480402A49091F0860084600689B
:1051000000F48040009000BF00BF00BF002000906E
:1051100023481438006840F004002149143908601D
:105120000846006800F00400009000BF00BF00BF08
:10513000002000900846006840F002000860084621
:10514000006800F00200009000BF00BF0C2001903A
:105150000220029000200390032004900520059077
:1051600001A91348FEF73EF84FF480600190022039
:10517000029000200390032004900520059001A9CF
:105180000948FEF72FF8002203212420FEF7FCF93E
:105190002420FEF7E9F906B010BD00000030014000
:1051A0004438024000000240000402400038004041
:1051B0000008024030B50346002400BF93F85000B9
:1051C000012801D1022030BD012083F8500000BF2A
:1051D00001B10AB9012435E093F85100012801D04A
:1051E00002242FE0032083F8510000205865196342
:1051F0009A86DA8698639887D8871864D86810B139
:105200001448586401E0144858649868B0F5004F99
:1052100005D11868006840F480401D68286018684F
:10522000406840F0A0001D6868601868006800F0E1
:105230004000402805D01868006840F040001D6814
:10524000286000BF00BF002083F8500000BF204648
:10525000B9E70000DD6B0008016C000810B50446DA
:105260000949206888420ED108480088401C074937
:105270000880012280210648FEF7C5F8002280211F
:105280000348FEF7C0F810BD003001403A0000208E
:105290000004024070B504462546681EB0F1807FC8
:1052A00001D301200FE0681E4FF0E02148610F217B
:1052B0004FF0FF3003F0AAFE00204FF0E02188619C
:1052C00007200861002070BD704700002DE9F047FD
:1052D0000446206805682068C668206847694FF062
:1052E0000008C14605F00F08B8F1000F0AD105F01B
:1052F000200038B106F0200020B1204602F084F8EA
:10530000BDE8F087B8F1000F72D007F0010018B9BE
:1053100006F4907000286BD005F0010030B106F45F
:10532000807018B1E06B40F00100E06305F004000C
:1053300030B107F0010018B1E06B40F00200E0630B
:1053400005F0020030B107F0010018B1E06B40F049
:105350000400E06305F0080048B106F0200010B931
:1053600007F0010018B1E06B40F00800E063E06B6B
:1053700070B305F0200028B106F0200010B12046DF
:1053800002F042F820684069C0F38019E06B00F039
:10539000080010B9B9F1000F23D0204602F014F82C
:1053A0002068406900F04000402816D1206840691C
:1053B00020F0400021684861606B50B11748616B74
:1053C0000865606BFDF72FFC10B1606B016D8847BD
:1053D0000CE02046FFF778FF08E02046FFF774FF57
:1053E00004E02046FFF770FF0020E06388E7FFE756
:1053F00005F0800030B106F0800018B1204602F0C0
:105400004BFA7DE705F0400030B106F0400018B1DE
:10541000204601F0E9FF73E700BF71E7B5730008AC
:1054200010B504460CB9012010BDA06900B100E020
:1054300000BF94F8390028B9002084F838002046CD
:1054400000F028F8242084F839002068C06820F48F
:1054500000502168C860204602F02AF820680069E0
:1054600020F49040216808612068406920F02A00FB
:10547000216848612068C06840F400502168C86015
:105480000020E063202084F8390084F83A000020EE
:10549000CAE7000010B586B00446142101A8FBF746
:1054A000A9FC7A492068884276D100BF002000908C
:1054B0007748006840F010007549086008460068A9
:1054C00000F01000009000BF00BF00BF002000905F
:1054D0006F481438006840F001006D4914390860C5
:1054E0000846006800F00100009000BF00BF4FF4C4
:1054F000C0600190022002900120039003200490DC
:105500000720059001A96348FDF76CFE62486349D6
:1055100008604FF000604860002160488160C16011
:105520004FF480610161002141618161C1610162CB
:105530004162FDF7E5FC08B1FDF706F800BF5748EA
:105540006063846300BF54487830554908604FF069
:10555000006048604021524881600021C1604FF4E2
:1055600080610161002141618161C161016241622B
:10557000FDF7C6FC08B1FCF7E7FF00BF4848206311
:10558000846300BF002206212520FDF7FDFF2520B2
:10559000FDF7EAFF78E0FFE742492068884273D1CF
:1055A00000BF002000903A48006840F020003849D1
:1055B00008600846006800F02000009000BF00BFAF
:1055C00000BF0020009032481438006840F004000A
:1055D0002F49143908600846006800F00400009064
:1055E00000BF00BFC0200190022002900120039064
:1055F000032004900820059001A92B48FDF7F2FD37
:105600002548183829490860800548600021274846
:105610008160C1604FF4806101610021416181615D
:10562000C16101624162FDF76BFC08B1FCF78CFFC0
:1056300000BF1E486063846300BF174860301C4988
:1056400008604FF0206048604021194881600021C7
:10565000C1604FF480610161002141618161C161DC
:1056600001624162FDF74CFC08B1FCF76DFF00BF21
:105670000F482063846300BF002206214720FDF706
:1056800083FF4720FDF770FF06B010BD00100140FA
:105690004438024000000240406402408002002082
:1056A000E0020020001401400008024040030020F6
:1056B000A00300207047704700BFFEE70A49096851
:1056C00001F0010171B108498039096801F0010157
:1056D00041B100BF4FF0604109680029FAD04FF096
:1056E0006042107070470000800E00E0024602B178
:1056F00011B96FF0040070470748807A00F001008C
:1057000038B90548026041600020034B1881012030
:1057100098720020EFE70000F4A8002030B585B0B3
:1057200005461848006840F480401649086016484D
:10573000006840F400001449086002200190002035
:105740000290032003900B200490104C09E0206885
:10575000FCF776FDA088009069462068FDF742FDC1
:1057600008340A4848308442F1D1094800210160D8
:10577000416081600560012005490871002005B085
:1057800030BD00004438024004380140202901089F
:1057900000A9002030B587B005465548808B00F041
:1057A000010010B1002007B030BD002420E05149B5
:1057B00001EB04110868FCF705FE4E4800EB0410ED
:1057C000808802904B4800EB0410806804904948A0
:1057D00000EB0410C068069002200390032005909F
:1057E000444901EB0411086802A9FDF7FBFC641CA5
:1057F000062CDCD34048006840F480403E490860F5
:105800003E48006840F001003C49086000BF3B484A
:10581000006800F480700028F9D000BF00200190DB
:1058200035481438006840F4800033491439086062
:105830000846006800F48000019000BF00BF3048B7
:10584000304908604FF00060486000212D488160B9
:10585000C1604FF48061016189004161890081610B
:105860002021C16100210162042141620321816282
:105870004FF40001C16289100163FDF741FB10B1D3
:105880004FF0FF308FE71E4848301F4908604FF047
:105890000060486040211C4881600021C1604FF4D5
:1058A0008061016189004161890081612021C161BC
:1058B0000021016204214162032181624FF4000151
:1058C000C16289100163FDF71BFB10B14FF0FF307F
:1058D00069E70E480B49C86320210548FBF78AFA9F
:1058E0000348056001200249888300205BE700002F
:1058F0008CCE0020B42901084438024020380140F1
:1059000058640240CCCD00202CCE00201D6700083A
:10591000014906F081BC0000ECCF002010B505481D
:10592000054908600846FDF7FFF808B1FCF70CFED2
:1059300010BD0000003002404800002008B500BF44
:10594000002000901648006840F480001449086068
:105950000846006800F48000009000BF00BF0022ED
:1059600011463920FDF710FE3920FDF7FDFD00221C
:1059700011463A20FDF708FE3A20FDF7F5FD00221A
:1059800011464520FDF700FE4520FDF7EDFD002204
:1059900011464620FDF7F8FD4620FDF7E5FD08BD60
:1059A0003038024000B587B0142102A8FBF722FA74
:1059B00000BF002001907348006840F0100071495A
:1059C00008600846006800F01000019000BF00BFAA
:1059D00000BF002001900846006840F00400086005
:1059E0000846006800F00400019000BF00BF00BF3F
:1059F000002001900846006840F0800008600846DA
:105A0000006800F08000019000BF00BF00BF0020D0
:105A100001900846006840F00100086008460068F0
:105A200000F00100019000BF00BF00BF0020019006
:105A30000846006840F0020008600846006800F070
:105A40000200019000BF00BF00BF00200190084687
:105A5000006840F0080008600846006800F0080090
:105A6000019000BF00BF002248F240114648FDF7F8
:105A7000CAFC00224FF680714448FDF7C4FC0022A6
:105A80004FF6FB714248FDF7BEFC0022C0214148A1
:105A9000FDF7B9FC7C2002900020039001200490C7
:105AA00002A93A48FDF79EFB0120029003200390D3
:105AB0000020049002A93848FDF794FB01200290D1
:105AC00000200390049002A92F48FDF78BFB48F2B9
:105AD000401002900120039000200490059002A93C
